{"contracts/KaretKontrak.sol":{"KaretKontrak":{"abi":[{"inputs":[],"stateMutability":"nonpayable","type":"constructor"},{"anonymous":false,"inputs":[{"indexed":false,"internalType":"address","name":"petani","type":"address"},{"indexed":false,"internalType":"uint256","name":"berat","type":"uint256"},{"indexed":false,"internalType":"uint256","name":"harga","type":"uint256"}],"name":"TransaksiDibuat","type":"event"},{"inputs":[{"internalType":"address","name":"_petani","type":"address"},{"internalType":"uint256","name":"_berat","type":"uint256"},{"internalType":"string","name":"_kualitas","type":"string"}],"name":"buatTransaksi","outputs":[],"stateMutability":"payable","type":"function"},{"inputs":[{"internalType":"string","name":"","type":"string"}],"name":"hargaPerKualitas","outputs":[{"internalType":"uint256","name":"","type":"uint256"}],"stateMutability":"view","type":"function"},{"inputs":[],"name":"owner","outputs":[{"internalType":"address","name":"","type":"address"}],"stateMutability":"view","type":"function"}],"evm":{"bytecode":{"linkReferences":{},"object":"608060405234801561001057600080fd5b50336000806101000a81548173ffffffffffffffffffffffffffffffffffffffff021916908373ffffffffffffffffffffffffffffffffffffffff160217905550662386f26fc10000600160405161006790610125565b9081526020016040518091039020819055506618de76816d8000600160405161008f90610186565b9081526020016040518091039020819055506611c37937e0800060016040516100b7906101e7565b9081526020016040518091039020819055506101fc565b600081905092915050565b7f4100000000000000000000000000000000000000000000000000000000000000600082015250565b600061010f6001836100ce565b915061011a826100d9565b600182019050919050565b600061013082610102565b9150819050919050565b7f4200000000000000000000000000000000000000000000000000000000000000600082015250565b60006101706001836100ce565b915061017b8261013a565b600182019050919050565b600061019182610163565b9150819050919050565b7f4300000000000000000000000000000000000000000000000000000000000000600082015250565b60006101d16001836100ce565b91506101dc8261019b565b600182019050919050565b60006101f2826101c4565b9150819050919050565b6107c68061020b6000396000f3fe6080604052600436106100345760003560e01c806314ea3c7c146100395780638da5cb5b14610076578063922561c1146100a1575b600080fd5b34801561004557600080fd5b50610060600480360381019061005b91906103bd565b6100bd565b60405161006d919061041f565b60405180910390f35b34801561008257600080fd5b5061008b6100eb565b604051610098919061047b565b60405180910390f35b6100bb60048036038101906100b6919061054e565b61010f565b005b6001818051602081018201805184825260208301602085012081835280955050505050506000915090505481565b60008054906101000a900473ffffffffffffffffffffffffffffffffffffffff1681565b60008054906101000a900473ffffffffffffffffffffffffffffffffffffffff1673ffffffffffffffffffffffffffffffffffffffff163373ffffffffffffffffffffffffffffffffffffffff161461019d576040517f08c379a00000000000000000000000000000000000000000000000000000000081526004016101949061061f565b60405180910390fd5b60006103e8600184846040516101b492919061066f565b908152602001604051809103902054856101ce91906106b7565b6101d89190610728565b90508473ffffffffffffffffffffffffffffffffffffffff166108fc829081150290604051600060405180830381858888f19350505050158015610220573d6000803e3d6000fd5b507f8a28ccca7183594b505c4be33c77ad5c60a8881d13b5ec21f49cde30f681da8485858360405161025493929190610759565b60405180910390a15050505050565b6000604051905090565b600080fd5b600080fd5b600080fd5b600080fd5b6000601f19601f8301169050919050565b7f4e487b7100000000000000000000000000000000000000000000000000000000600052604160045260246000fd5b6102ca82610281565b810181811067ffffffffffffffff821117156102e9576102e8610292565b5b80604052505050565b60006102fc610263565b905061030882826102c1565b919050565b600067ffffffffffffffff82111561032857610327610292565b5b61033182610281565b9050602081019050919050565b82818337600083830152505050565b600061036061035b8461030d565b6102f2565b90508281526020810184848401111561037c5761037b61027c565b5b61038784828561033e565b509392505050565b600082601f8301126103a4576103a3610277565b5b81356103b484826020860161034d565b91505092915050565b6000602082840312156103d3576103d261026d565b5b600082013567ffffffffffffffff8111156103f1576103f0610272565b5b6103fd8482850161038f565b91505092915050565b6000819050919050565b61041981610406565b82525050565b60006020820190506104346000830184610410565b92915050565b600073ffffffffffffffffffffffffffffffffffffffff82169050919050565b60006104658261043a565b9050919050565b6104758161045a565b82525050565b6000602082019050610490600083018461046c565b92915050565b61049f8161045a565b81146104aa57600080fd5b50565b6000813590506104bc81610496565b92915050565b6104cb81610406565b81146104d657600080fd5b50565b6000813590506104e8816104c2565b92915050565b600080fd5b600080fd5b60008083601f84011261050e5761050d610277565b5b8235905067ffffffffffffffff81111561052b5761052a6104ee565b5b602083019150836001820283011115610547576105466104f3565b5b9250929050565b600080600080606085870312156105685761056761026d565b5b6000610576878288016104ad565b9450506020610587878288016104d9565b935050604085013567ffffffffffffffff8111156105a8576105a7610272565b5b6105b4878288016104f8565b925092505092959194509250565b600082825260208201905092915050565b7f48616e7961206f776e6572000000000000000000000000000000000000000000600082015250565b6000610609600b836105c2565b9150610614826105d3565b602082019050919050565b60006020820190508181036000830152610638816105fc565b9050919050565b600081905092915050565b6000610656838561063f565b935061066383858461033e565b82840190509392505050565b600061067c82848661064a565b91508190509392505050565b7f4e487b7100000000000000000000000000000000000000000000000000000000600052601160045260246000fd5b60006106c282610406565b91506106cd83610406565b92508282026106db81610406565b915082820484148315176106f2576106f1610688565b5b5092915050565b7f4e487b7100000000000000000000000000000000000000000000000000000000600052601260045260246000fd5b600061073382610406565b915061073e83610406565b92508261074e5761074d6106f9565b5b828204905092915050565b600060608201905061076e600083018661046c565b61077b6020830185610410565b6107886040830184610410565b94935050505056fea26469706673582212205b8eda0a85c8bf8cb208775f6f64b19ff5bd28883609d171808ca48f368b6edd64736f6c634300081c0033","opcodes":"PUSH1 0x80 PUSH1 0x40 MSTORE CALLVALUE DUP1 ISZERO PUSH2 0x10 JUMPI PUSH1 0x0 DUP1 REVERT JUMPDEST POP CALLER PUSH1 0x0 DUP1 PUSH2 0x100 EXP DUP2 SLOAD DUP2 PUSH20 0xFFFFFFFFFFFFFFFFFFFFFFFFFFFFFFFFFFFFFFFF MUL NOT AND SWAP1 DUP4 PUSH20 0xFFFFFFFFFFFFFFFFFFFFFFFFFFFFFFFFFFFFFFFF AND MUL OR SWAP1 SSTORE POP PUSH7 0x2386F26FC10000 PUSH1 0x1 PUSH1 0x40 MLOAD PUSH2 0x67 SWAP1 PUSH2 0x125 JUMP JUMPDEST SWAP1 DUP2 MSTORE PUSH1 0x20 ADD PUSH1 0x40 MLOAD DUP1 SWAP2 SUB SWAP1 KECCAK256 DUP2 SWAP1 SSTORE POP PUSH7 0x18DE76816D8000 PUSH1 0x1 PUSH1 0x40 MLOAD PUSH2 0x8F SWAP1 PUSH2 0x186 JUMP JUMPDEST SWAP1 DUP2 MSTORE PUSH1 0x20 ADD PUSH1 0x40 MLOAD DUP1 SWAP2 SUB SWAP1 KECCAK256 DUP2 SWAP1 SSTORE POP PUSH7 0x11C37937E08000 PUSH1 0x1 PUSH1 0x40 MLOAD PUSH2 0xB7 SWAP1 PUSH2 0x1E7 JUMP JUMPDEST SWAP1 DUP2 MSTORE PUSH1 0x20 ADD PUSH1 0x40 MLOAD DUP1 SWAP2 SUB SWAP1 KECCAK256 DUP2 SWAP1 SSTORE POP PUSH2 0x1FC JUMP JUMPDEST PUSH1 0x0 DUP2 SWAP1 POP SWAP3 SWAP2 POP POP JUMP JUMPDEST PUSH32 0x4100000000000000000000000000000000000000000000000000000000000000 PUSH1 0x0 DUP3 ADD MSTORE POP JUMP JUMPDEST PUSH1 0x0 PUSH2 0x10F PUSH1 0x1 DUP4 PUSH2 0xCE JUMP JUMPDEST SWAP2 POP PUSH2 0x11A DUP3 PUSH2 0xD9 JUMP JUMPDEST PUSH1 0x1 DUP3 ADD SWAP1 POP SWAP2 SWAP1 POP JUMP JUMPDEST PUSH1 0x0 PUSH2 0x130 DUP3 PUSH2 0x102 JUMP JUMPDEST SWAP2 POP DUP2 SWAP1 POP SWAP2 SWAP1 POP JUMP JUMPDEST PUSH32 0x4200000000000000000000000000000000000000000000000000000000000000 PUSH1 0x0 DUP3 ADD MSTORE POP JUMP JUMPDEST PUSH1 0x0 PUSH2 0x170 PUSH1 0x1 DUP4 PUSH2 0xCE JUMP JUMPDEST SWAP2 POP PUSH2 0x17B DUP3 PUSH2 0x13A JUMP JUMPDEST PUSH1 0x1 DUP3 ADD SWAP1 POP SWAP2 SWAP1 POP JUMP JUMPDEST PUSH1 0x0 PUSH2 0x191 DUP3 PUSH2 0x163 JUMP JUMPDEST SWAP2 POP DUP2 SWAP1 POP SWAP2 SWAP1 POP JUMP JUMPDEST PUSH32 0x4300000000000000000000000000000000000000000000000000000000000000 PUSH1 0x0 DUP3 ADD MSTORE POP JUMP JUMPDEST PUSH1 0x0 PUSH2 0x1D1 PUSH1 0x1 DUP4 PUSH2 0xCE JUMP JUMPDEST SWAP2 POP PUSH2 0x1DC DUP3 PUSH2 0x19B JUMP JUMPDEST PUSH1 0x1 DUP3 ADD SWAP1 POP SWAP2 SWAP1 POP JUMP JUMPDEST PUSH1 0x0 PUSH2 0x1F2 DUP3 PUSH2 0x1C4 JUMP JUMPDEST SWAP2 POP DUP2 SWAP1 POP SWAP2 SWAP1 POP JUMP JUMPDEST PUSH2 0x7C6 DUP1 PUSH2 0x20B PUSH1 0x0 CODECOPY PUSH1 0x0 RETURN INVALID PUSH1 0x80 PUSH1 0x40 MSTORE PUSH1 0x4 CALLDATASIZE LT PUSH2 0x34 JUMPI PUSH1 0x0 CALLDATALOAD PUSH1 0xE0 SHR DUP1 PUSH4 0x14EA3C7C EQ PUSH2 0x39 JUMPI DUP1 PUSH4 0x8DA5CB5B EQ PUSH2 0x76 JUMPI DUP1 PUSH4 0x922561C1 EQ PUSH2 0xA1 JUMPI JUMPDEST PUSH1 0x0 DUP1 REVERT JUMPDEST CALLVALUE DUP1 ISZERO PUSH2 0x45 JUMPI PUSH1 0x0 DUP1 REVERT JUMPDEST POP PUSH2 0x60 PUSH1 0x4 DUP1 CALLDATASIZE SUB DUP2 ADD SWAP1 PUSH2 0x5B SWAP2 SWAP1 PUSH2 0x3BD JUMP JUMPDEST PUSH2 0xBD JUMP JUMPDEST PUSH1 0x40 MLOAD PUSH2 0x6D SWAP2 SWAP1 PUSH2 0x41F JUMP JUMPDEST PUSH1 0x40 MLOAD DUP1 SWAP2 SUB SWAP1 RETURN JUMPDEST CALLVALUE DUP1 ISZERO PUSH2 0x82 JUMPI PUSH1 0x0 DUP1 REVERT JUMPDEST POP PUSH2 0x8B PUSH2 0xEB JUMP JUMPDEST PUSH1 0x40 MLOAD PUSH2 0x98 SWAP2 SWAP1 PUSH2 0x47B JUMP JUMPDEST PUSH1 0x40 MLOAD DUP1 SWAP2 SUB SWAP1 RETURN JUMPDEST PUSH2 0xBB PUSH1 0x4 DUP1 CALLDATASIZE SUB DUP2 ADD SWAP1 PUSH2 0xB6 SWAP2 SWAP1 PUSH2 0x54E JUMP JUMPDEST PUSH2 0x10F JUMP JUMPDEST STOP JUMPDEST PUSH1 0x1 DUP2 DUP1 MLOAD PUSH1 0x20 DUP2 ADD DUP3 ADD DUP1 MLOAD DUP5 DUP3 MSTORE PUSH1 0x20 DUP4 ADD PUSH1 0x20 DUP6 ADD KECCAK256 DUP2 DUP4 MSTORE DUP1 SWAP6 POP POP POP POP POP POP PUSH1 0x0 SWAP2 POP SWAP1 POP SLOAD DUP2 JUMP JUMPDEST PUSH1 0x0 DUP1 SLOAD SWAP1 PUSH2 0x100 EXP SWAP1 DIV PUSH20 0xFFFFFFFFFFFFFFFFFFFFFFFFFFFFFFFFFFFFFFFF AND DUP2 JUMP JUMPDEST PUSH1 0x0 DUP1 SLOAD SWAP1 PUSH2 0x100 EXP SWAP1 DIV PUSH20 0xFFFFFFFFFFFFFFFFFFFFFFFFFFFFFFFFFFFFFFFF AND PUSH20 0xFFFFFFFFFFFFFFFFFFFFFFFFFFFFFFFFFFFFFFFF AND CALLER PUSH20 0xFFFFFFFFFFFFFFFFFFFFFFFFFFFFFFFFFFFFFFFF AND EQ PUSH2 0x19D JUMPI PUSH1 0x40 MLOAD PUSH32 0x8C379A000000000000000000000000000000000000000000000000000000000 DUP2 MSTORE PUSH1 0x4 ADD PUSH2 0x194 SWAP1 PUSH2 0x61F JUMP JUMPDEST PUSH1 0x40 MLOAD DUP1 SWAP2 SUB SWAP1 REVERT JUMPDEST PUSH1 0x0 PUSH2 0x3E8 PUSH1 0x1 DUP5 DUP5 PUSH1 0x40 MLOAD PUSH2 0x1B4 SWAP3 SWAP2 SWAP1 PUSH2 0x66F JUMP JUMPDEST SWAP1 DUP2 MSTORE PUSH1 0x20 ADD PUSH1 0x40 MLOAD DUP1 SWAP2 SUB SWAP1 KECCAK256 SLOAD DUP6 PUSH2 0x1CE SWAP2 SWAP1 PUSH2 0x6B7 JUMP JUMPDEST PUSH2 0x1D8 SWAP2 SWAP1 PUSH2 0x728 JUMP JUMPDEST SWAP1 POP DUP5 PUSH20 0xFFFFFFFFFFFFFFFFFFFFFFFFFFFFFFFFFFFFFFFF AND PUSH2 0x8FC DUP3 SWAP1 DUP2 ISZERO MUL SWAP1 PUSH1 0x40 MLOAD PUSH1 0x0 PUSH1 0x40 MLOAD DUP1 DUP4 SUB DUP2 DUP6 DUP9 DUP9 CALL SWAP4 POP POP POP POP ISZERO DUP1 ISZERO PUSH2 0x220 JUMPI RETURNDATASIZE PUSH1 0x0 DUP1 RETURNDATACOPY RETURNDATASIZE PUSH1 0x0 REVERT JUMPDEST POP PUSH32 0x8A28CCCA7183594B505C4BE33C77AD5C60A8881D13B5EC21F49CDE30F681DA84 DUP6 DUP6 DUP4 PUSH1 0x40 MLOAD PUSH2 0x254 SWAP4 SWAP3 SWAP2 SWAP1 PUSH2 0x759 JUMP JUMPDEST PUSH1 0x40 MLOAD DUP1 SWAP2 SUB SWAP1 LOG1 POP POP POP POP POP JUMP JUMPDEST PUSH1 0x0 PUSH1 0x40 MLOAD SWAP1 POP SWAP1 JUMP JUMPDEST PUSH1 0x0 DUP1 REVERT JUMPDEST PUSH1 0x0 DUP1 REVERT JUMPDEST PUSH1 0x0 DUP1 REVERT JUMPDEST PUSH1 0x0 DUP1 REVERT JUMPDEST PUSH1 0x0 PUSH1 0x1F NOT PUSH1 0x1F DUP4 ADD AND SWAP1 POP SWAP2 SWAP1 POP JUMP JUMPDEST PUSH32 0x4E487B7100000000000000000000000000000000000000000000000000000000 PUSH1 0x0 MSTORE PUSH1 0x41 PUSH1 0x4 MSTORE PUSH1 0x24 PUSH1 0x0 REVERT JUMPDEST PUSH2 0x2CA DUP3 PUSH2 0x281 JUMP JUMPDEST DUP2 ADD DUP2 DUP2 LT PUSH8 0xFFFFFFFFFFFFFFFF DUP3 GT OR ISZERO PUSH2 0x2E9 JUMPI PUSH2 0x2E8 PUSH2 0x292 JUMP JUMPDEST JUMPDEST DUP1 PUSH1 0x40 MSTORE POP POP POP JUMP JUMPDEST PUSH1 0x0 PUSH2 0x2FC PUSH2 0x263 JUMP JUMPDEST SWAP1 POP PUSH2 0x308 DUP3 DUP3 PUSH2 0x2C1 JUMP JUMPDEST SWAP2 SWAP1 POP JUMP JUMPDEST PUSH1 0x0 PUSH8 0xFFFFFFFFFFFFFFFF DUP3 GT ISZERO PUSH2 0x328 JUMPI PUSH2 0x327 PUSH2 0x292 JUMP JUMPDEST JUMPDEST PUSH2 0x331 DUP3 PUSH2 0x281 JUMP JUMPDEST SWAP1 POP PUSH1 0x20 DUP2 ADD SWAP1 POP SWAP2 SWAP1 POP JUMP JUMPDEST DUP3 DUP2 DUP4 CALLDATACOPY PUSH1 0x0 DUP4 DUP4 ADD MSTORE POP POP POP JUMP JUMPDEST PUSH1 0x0 PUSH2 0x360 PUSH2 0x35B DUP5 PUSH2 0x30D JUMP JUMPDEST PUSH2 0x2F2 JUMP JUMPDEST SWAP1 POP DUP3 DUP2 MSTORE PUSH1 0x20 DUP2 ADD DUP5 DUP5 DUP5 ADD GT ISZERO PUSH2 0x37C JUMPI PUSH2 0x37B PUSH2 0x27C JUMP JUMPDEST JUMPDEST PUSH2 0x387 DUP5 DUP3 DUP6 PUSH2 0x33E JUMP JUMPDEST POP SWAP4 SWAP3 POP POP POP JUMP JUMPDEST PUSH1 0x0 DUP3 PUSH1 0x1F DUP4 ADD SLT PUSH2 0x3A4 JUMPI PUSH2 0x3A3 PUSH2 0x277 JUMP JUMPDEST JUMPDEST DUP2 CALLDATALOAD PUSH2 0x3B4 DUP5 DUP3 PUSH1 0x20 DUP7 ADD PUSH2 0x34D JUMP JUMPDEST SWAP2 POP POP SWAP3 SWAP2 POP POP JUMP JUMPDEST PUSH1 0x0 PUSH1 0x20 DUP3 DUP5 SUB SLT ISZERO PUSH2 0x3D3 JUMPI PUSH2 0x3D2 PUSH2 0x26D JUMP JUMPDEST JUMPDEST PUSH1 0x0 DUP3 ADD CALLDATALOAD PUSH8 0xFFFFFFFFFFFFFFFF DUP2 GT ISZERO PUSH2 0x3F1 JUMPI PUSH2 0x3F0 PUSH2 0x272 JUMP JUMPDEST JUMPDEST PUSH2 0x3FD DUP5 DUP3 DUP6 ADD PUSH2 0x38F JUMP JUMPDEST SWAP2 POP POP SWAP3 SWAP2 POP POP JUMP JUMPDEST PUSH1 0x0 DUP2 SWAP1 POP SWAP2 SWAP1 POP JUMP JUMPDEST PUSH2 0x419 DUP2 PUSH2 0x406 JUMP JUMPDEST DUP3 MSTORE POP POP JUMP JUMPDEST PUSH1 0x0 PUSH1 0x20 DUP3 ADD SWAP1 POP PUSH2 0x434 PUSH1 0x0 DUP4 ADD DUP5 PUSH2 0x410 JUMP JUMPDEST SWAP3 SWAP2 POP POP JUMP JUMPDEST PUSH1 0x0 PUSH20 0xFFFFFFFFFFFFFFFFFFFFFFFFFFFFFFFFFFFFFFFF DUP3 AND SWAP1 POP SWAP2 SWAP1 POP JUMP JUMPDEST PUSH1 0x0 PUSH2 0x465 DUP3 PUSH2 0x43A JUMP JUMPDEST SWAP1 POP SWAP2 SWAP1 POP JUMP JUMPDEST PUSH2 0x475 DUP2 PUSH2 0x45A JUMP JUMPDEST DUP3 MSTORE POP POP JUMP JUMPDEST PUSH1 0x0 PUSH1 0x20 DUP3 ADD SWAP1 POP PUSH2 0x490 PUSH1 0x0 DUP4 ADD DUP5 PUSH2 0x46C JUMP JUMPDEST SWAP3 SWAP2 POP POP JUMP JUMPDEST PUSH2 0x49F DUP2 PUSH2 0x45A JUMP JUMPDEST DUP2 EQ PUSH2 0x4AA JUMPI PUSH1 0x0 DUP1 REVERT JUMPDEST POP JUMP JUMPDEST PUSH1 0x0 DUP2 CALLDATALOAD SWAP1 POP PUSH2 0x4BC DUP2 PUSH2 0x496 JUMP JUMPDEST SWAP3 SWAP2 POP POP JUMP JUMPDEST PUSH2 0x4CB DUP2 PUSH2 0x406 JUMP JUMPDEST DUP2 EQ PUSH2 0x4D6 JUMPI PUSH1 0x0 DUP1 REVERT JUMPDEST POP JUMP JUMPDEST PUSH1 0x0 DUP2 CALLDATALOAD SWAP1 POP PUSH2 0x4E8 DUP2 PUSH2 0x4C2 JUMP JUMPDEST SWAP3 SWAP2 POP POP JUMP JUMPDEST PUSH1 0x0 DUP1 REVERT JUMPDEST PUSH1 0x0 DUP1 REVERT JUMPDEST PUSH1 0x0 DUP1 DUP4 PUSH1 0x1F DUP5 ADD SLT PUSH2 0x50E JUMPI PUSH2 0x50D PUSH2 0x277 JUMP JUMPDEST JUMPDEST DUP3 CALLDATALOAD SWAP1 POP PUSH8 0xFFFFFFFFFFFFFFFF DUP2 GT ISZERO PUSH2 0x52B JUMPI PUSH2 0x52A PUSH2 0x4EE JUMP JUMPDEST JUMPDEST PUSH1 0x20 DUP4 ADD SWAP2 POP DUP4 PUSH1 0x1 DUP3 MUL DUP4 ADD GT ISZERO PUSH2 0x547 JUMPI PUSH2 0x546 PUSH2 0x4F3 JUMP JUMPDEST JUMPDEST SWAP3 POP SWAP3 SWAP1 POP JUMP JUMPDEST PUSH1 0x0 DUP1 PUSH1 0x0 DUP1 PUSH1 0x60 DUP6 DUP8 SUB SLT ISZERO PUSH2 0x568 JUMPI PUSH2 0x567 PUSH2 0x26D JUMP JUMPDEST JUMPDEST PUSH1 0x0 PUSH2 0x576 DUP8 DUP3 DUP9 ADD PUSH2 0x4AD JUMP JUMPDEST SWAP5 POP POP PUSH1 0x20 PUSH2 0x587 DUP8 DUP3 DUP9 ADD PUSH2 0x4D9 JUMP JUMPDEST SWAP4 POP POP PUSH1 0x40 DUP6 ADD CALLDATALOAD PUSH8 0xFFFFFFFFFFFFFFFF DUP2 GT ISZERO PUSH2 0x5A8 JUMPI PUSH2 0x5A7 PUSH2 0x272 JUMP JUMPDEST JUMPDEST PUSH2 0x5B4 DUP8 DUP3 DUP9 ADD PUSH2 0x4F8 JUMP JUMPDEST SWAP3 POP SWAP3 POP POP SWAP3 SWAP6 SWAP2 SWAP5 POP SWAP3 POP JUMP JUMPDEST PUSH1 0x0 DUP3 DUP3 MSTORE PUSH1 0x20 DUP3 ADD SWAP1 POP SWAP3 SWAP2 POP POP JUMP JUMPDEST PUSH32 0x48616E7961206F776E6572000000000000000000000000000000000000000000 PUSH1 0x0 DUP3 ADD MSTORE POP JUMP JUMPDEST PUSH1 0x0 PUSH2 0x609 PUSH1 0xB DUP4 PUSH2 0x5C2 JUMP JUMPDEST SWAP2 POP PUSH2 0x614 DUP3 PUSH2 0x5D3 JUMP JUMPDEST PUSH1 0x20 DUP3 ADD SWAP1 POP SWAP2 SWAP1 POP JUMP JUMPDEST PUSH1 0x0 PUSH1 0x20 DUP3 ADD SWAP1 POP DUP2 DUP2 SUB PUSH1 0x0 DUP4 ADD MSTORE PUSH2 0x638 DUP2 PUSH2 0x5FC JUMP JUMPDEST SWAP1 POP SWAP2 SWAP1 POP JUMP JUMPDEST PUSH1 0x0 DUP2 SWAP1 POP SWAP3 SWAP2 POP POP JUMP JUMPDEST PUSH1 0x0 PUSH2 0x656 DUP4 DUP6 PUSH2 0x63F JUMP JUMPDEST SWAP4 POP PUSH2 0x663 DUP4 DUP6 DUP5 PUSH2 0x33E JUMP JUMPDEST DUP3 DUP5 ADD SWAP1 POP SWAP4 SWAP3 POP POP POP JUMP JUMPDEST PUSH1 0x0 PUSH2 0x67C DUP3 DUP5 DUP7 PUSH2 0x64A JUMP JUMPDEST SWAP2 POP DUP2 SWAP1 POP SWAP4 SWAP3 POP POP POP JUMP JUMPDEST PUSH32 0x4E487B7100000000000000000000000000000000000000000000000000000000 PUSH1 0x0 MSTORE PUSH1 0x11 PUSH1 0x4 MSTORE PUSH1 0x24 PUSH1 0x0 REVERT JUMPDEST PUSH1 0x0 PUSH2 0x6C2 DUP3 PUSH2 0x406 JUMP JUMPDEST SWAP2 POP PUSH2 0x6CD DUP4 PUSH2 0x406 JUMP JUMPDEST SWAP3 POP DUP3 DUP3 MUL PUSH2 0x6DB DUP2 PUSH2 0x406 JUMP JUMPDEST SWAP2 POP DUP3 DUP3 DIV DUP5 EQ DUP4 ISZERO OR PUSH2 0x6F2 JUMPI PUSH2 0x6F1 PUSH2 0x688 JUMP JUMPDEST JUMPDEST POP SWAP3 SWAP2 POP POP JUMP JUMPDEST PUSH32 0x4E487B7100000000000000000000000000000000000000000000000000000000 PUSH1 0x0 MSTORE PUSH1 0x12 PUSH1 0x4 MSTORE PUSH1 0x24 PUSH1 0x0 REVERT JUMPDEST PUSH1 0x0 PUSH2 0x733 DUP3 PUSH2 0x406 JUMP JUMPDEST SWAP2 POP PUSH2 0x73E DUP4 PUSH2 0x406 JUMP JUMPDEST SWAP3 POP DUP3 PUSH2 0x74E JUMPI PUSH2 0x74D PUSH2 0x6F9 JUMP JUMPDEST JUMPDEST DUP3 DUP3 DIV SWAP1 POP SWAP3 SWAP2 POP POP JUMP JUMPDEST PUSH1 0x0 PUSH1 0x60 DUP3 ADD SWAP1 POP PUSH2 0x76E PUSH1 0x0 DUP4 ADD DUP7 PUSH2 0x46C JUMP JUMPDEST PUSH2 0x77B PUSH1 0x20 DUP4 ADD DUP6 PUSH2 0x410 JUMP JUMPDEST PUSH2 0x788 PUSH1 0x40 DUP4 ADD DUP5 PUSH2 0x410 JUMP JUMPDEST SWAP5 SWAP4 POP POP POP POP JUMP INVALID LOG2 PUSH5 0x6970667358 0x22 SLT KECCAK256 JUMPDEST DUP15 0xDA EXP DUP6 0xC8 0xBF DUP13 0xB2 ADDMOD PUSH24 0x5F6F64B19FF5BD28883609D171808CA48F368B6EDD64736F PUSH13 0x634300081C0033000000000000 "},"methodIdentifiers":{"buatTransaksi(address,uint256,string)":"922561c1","hargaPerKualitas(string)":"14ea3c7c","owner()":"8da5cb5b"}}}}}