{
  "_format": "hh-sol-artifact-1",
  "contractName": "KaretKontrak",
  "sourceName": "contracts/KaretKontrak.sol",
  "abi": [
    {
      "inputs": [],
      "stateMutability": "nonpayable",
      "type": "constructor"
    },
    {
      "anonymous": false,
      "inputs": [
        {
          "indexed": false,
          "internalType": "string",
          "name": "kualitas",
          "type": "string"
        },
        {
          "indexed": false,
          "internalType": "uint256",
          "name": "hargaBaru",
          "type": "uint256"
        }
      ],
      "name": "HargaDiupdate",
      "type": "event"
    },
    {
      "anonymous": false,
      "inputs": [
        {
          "indexed": false,
          "internalType": "address",
          "name": "petani",
          "type": "address"
        },
        {
          "indexed": false,
          "internalType": "uint256",
          "name": "beratKg",
          "type": "uint256"
        },
        {
          "indexed": false,
          "internalType": "uint256",
          "name": "harga",
          "type": "uint256"
        }
      ],
      "name": "TransaksiDibuat",
      "type": "event"
    },
    {
      "inputs": [
        {
          "internalType": "address",
          "name": "_petani",
          "type": "address"
        },
        {
          "internalType": "uint256",
          "name": "_beratKg",
          "type": "uint256"
        },
        {
          "internalType": "string",
          "name": "_kualitas",
          "type": "string"
        }
      ],
      "name": "buatTransaksi",
      "outputs": [],
      "stateMutability": "payable",
      "type": "function"
    },
    {
      "inputs": [
        {
          "internalType": "string",
          "name": "",
          "type": "string"
        }
      ],
      "name": "hargaPerKualitas",
      "outputs": [
        {
          "internalType": "uint256",
          "name": "",
          "type": "uint256"
        }
      ],
      "stateMutability": "view",
      "type": "function"
    },
    {
      "inputs": [],
      "name": "owner",
      "outputs": [
        {
          "internalType": "address",
          "name": "",
          "type": "address"
        }
      ],
      "stateMutability": "view",
      "type": "function"
    },
    {
      "inputs": [
        {
          "internalType": "string",
          "name": "_kualitas",
          "type": "string"
        },
        {
          "internalType": "uint256",
          "name": "_harga",
          "type": "uint256"
        }
      ],
      "name": "updateHarga",
      "outputs": [],
      "stateMutability": "nonpayable",
      "type": "function"
    }
  ],
  "bytecode": "0x608060405234801561001057600080fd5b50336000806101000a81548173ffffffffffffffffffffffffffffffffffffffff021916908373ffffffffffffffffffffffffffffffffffffffff160217905550662386f26fc10000600160405161006790610125565b9081526020016040518091039020819055506618de76816d8000600160405161008f90610186565b9081526020016040518091039020819055506611c37937e0800060016040516100b7906101e7565b9081526020016040518091039020819055506101fc565b600081905092915050565b7f4100000000000000000000000000000000000000000000000000000000000000600082015250565b600061010f6001836100ce565b915061011a826100d9565b600182019050919050565b600061013082610102565b9150819050919050565b7f4200000000000000000000000000000000000000000000000000000000000000600082015250565b60006101706001836100ce565b915061017b8261013a565b600182019050919050565b600061019182610163565b9150819050919050565b7f4300000000000000000000000000000000000000000000000000000000000000600082015250565b60006101d16001836100ce565b91506101dc8261019b565b600182019050919050565b60006101f2826101c4565b9150819050919050565b610cdd8061020b6000396000f3fe60806040526004361061003f5760003560e01c806314ea3c7c146100445780635a7da563146100815780638da5cb5b146100aa578063922561c1146100d5575b600080fd5b34801561005057600080fd5b5061006b6004803603810190610066919061061f565b6100f1565b6040516100789190610681565b60405180910390f35b34801561008d57600080fd5b506100a860048036038101906100a39190610728565b61011f565b005b3480156100b657600080fd5b506100bf610255565b6040516100cc91906107c9565b60405180910390f35b6100ef60048036038101906100ea9190610810565b610279565b005b6001818051602081018201805184825260208301602085012081835280955050505050506000915090505481565b60008054906101000a900473ffffffffffffffffffffffffffffffffffffffff1673ffffffffffffffffffffffffffffffffffffffff163373ffffffffffffffffffffffffffffffffffffffff16146101ad576040517f08c379a00000000000000000000000000000000000000000000000000000000081526004016101a4906108e1565b60405180910390fd5b600081116101f0576040517f08c379a00000000000000000000000000000000000000000000000000000000081526004016101e79061094d565b60405180910390fd5b806001848460405161020392919061099d565b9081526020016040518091039020819055507f8ec68168fc1f3e2e767303aa881530e3883512962ffa7b97bdeb3197cdc85df1838383604051610248939291906109e3565b60405180910390a1505050565b60008054906101000a900473ffffffffffffffffffffffffffffffffffffffff1681565b60008054906101000a900473ffffffffffffffffffffffffffffffffffffffff1673ffffffffffffffffffffffffffffffffffffffff163373ffffffffffffffffffffffffffffffffffffffff1614610307576040517f08c379a00000000000000000000000000000000000000000000000000000000081526004016102fe906108e1565b60405180910390fd5b60006001838360405161031b92919061099d565b90815260200160405180910390205490506000811161036f576040517f08c379a000000000000000000000000000000000000000000000000000000000815260040161036690610a61565b60405180910390fd5b6000670de0b6b3a764000082866103869190610ab0565b6103909190610b21565b9050803410156103d5576040517f08c379a00000000000000000000000000000000000000000000000000000000081526004016103cc90610b9e565b60405180910390fd5b60008673ffffffffffffffffffffffffffffffffffffffff16826040516103fb90610bef565b60006040518083038185875af1925050503d8060008114610438576040519150601f19603f3d011682016040523d82523d6000602084013e61043d565b606091505b5050905080610481576040517f08c379a000000000000000000000000000000000000000000000000000000000815260040161047890610c50565b60405180910390fd5b7f8a28ccca7183594b505c4be33c77ad5c60a8881d13b5ec21f49cde30f681da848787846040516104b493929190610c70565b60405180910390a150505050505050565b6000604051905090565b600080fd5b600080fd5b600080fd5b600080fd5b6000601f19601f8301169050919050565b7f4e487b7100000000000000000000000000000000000000000000000000000000600052604160045260246000fd5b61052c826104e3565b810181811067ffffffffffffffff8211171561054b5761054a6104f4565b5b80604052505050565b600061055e6104c5565b905061056a8282610523565b919050565b600067ffffffffffffffff82111561058a576105896104f4565b5b610593826104e3565b9050602081019050919050565b82818337600083830152505050565b60006105c26105bd8461056f565b610554565b9050828152602081018484840111156105de576105dd6104de565b5b6105e98482856105a0565b509392505050565b600082601f830112610606576106056104d9565b5b81356106168482602086016105af565b91505092915050565b600060208284031215610635576106346104cf565b5b600082013567ffffffffffffffff811115610653576106526104d4565b5b61065f848285016105f1565b91505092915050565b6000819050919050565b61067b81610668565b82525050565b60006020820190506106966000830184610672565b92915050565b600080fd5b600080fd5b60008083601f8401126106bc576106bb6104d9565b5b8235905067ffffffffffffffff8111156106d9576106d861069c565b5b6020830191508360018202830111156106f5576106f46106a1565b5b9250929050565b61070581610668565b811461071057600080fd5b50565b600081359050610722816106fc565b92915050565b600080600060408486031215610741576107406104cf565b5b600084013567ffffffffffffffff81111561075f5761075e6104d4565b5b61076b868287016106a6565b9350935050602061077e86828701610713565b9150509250925092565b600073ffffffffffffffffffffffffffffffffffffffff82169050919050565b60006107b382610788565b9050919050565b6107c3816107a8565b82525050565b60006020820190506107de60008301846107ba565b92915050565b6107ed816107a8565b81146107f857600080fd5b50565b60008135905061080a816107e4565b92915050565b6000806000806060858703121561082a576108296104cf565b5b6000610838878288016107fb565b945050602061084987828801610713565b935050604085013567ffffffffffffffff81111561086a576108696104d4565b5b610876878288016106a6565b925092505092959194509250565b600082825260208201905092915050565b7f48616e7961206f776e6572000000000000000000000000000000000000000000600082015250565b60006108cb600b83610884565b91506108d682610895565b602082019050919050565b600060208201905081810360008301526108fa816108be565b9050919050565b7f4861726761206861727573206c65626968206461726920300000000000000000600082015250565b6000610937601883610884565b915061094282610901565b602082019050919050565b600060208201905081810360008301526109668161092a565b9050919050565b600081905092915050565b6000610984838561096d565b93506109918385846105a0565b82840190509392505050565b60006109aa828486610978565b91508190509392505050565b60006109c28385610884565b93506109cf8385846105a0565b6109d8836104e3565b840190509392505050565b600060408201905081810360008301526109fe8185876109b6565b9050610a0d6020830184610672565b949350505050565b7f4b75616c6974617320746964616b2076616c6964000000000000000000000000600082015250565b6000610a4b601483610884565b9150610a5682610a15565b602082019050919050565b60006020820190508181036000830152610a7a81610a3e565b9050919050565b7f4e487b7100000000000000000000000000000000000000000000000000000000600052601160045260246000fd5b6000610abb82610668565b9150610ac683610668565b9250828202610ad481610668565b91508282048414831517610aeb57610aea610a81565b5b5092915050565b7f4e487b7100000000000000000000000000000000000000000000000000000000600052601260045260246000fd5b6000610b2c82610668565b9150610b3783610668565b925082610b4757610b46610af2565b5b828204905092915050565b7f45544820746964616b2063756b75700000000000000000000000000000000000600082015250565b6000610b88600f83610884565b9150610b9382610b52565b602082019050919050565b60006020820190508181036000830152610bb781610b7b565b9050919050565b600081905092915050565b50565b6000610bd9600083610bbe565b9150610be482610bc9565b600082019050919050565b6000610bfa82610bcc565b9150819050919050565b7f5472616e7366657220676167616c000000000000000000000000000000000000600082015250565b6000610c3a600e83610884565b9150610c4582610c04565b602082019050919050565b60006020820190508181036000830152610c6981610c2d565b9050919050565b6000606082019050610c8560008301866107ba565b610c926020830185610672565b610c9f6040830184610672565b94935050505056fea26469706673582212206f4fa6abcd2bb1c06a3a0fcaa730ea94e8de3533ea895b8509249987cd3753b364736f6c634300081c0033",
  "linkReferences": {},
  "deployedLinkReferences": {}
}