{
  "_format": "hh-sol-artifact-1",
  "contractName": "KaretKontrak",
  "sourceName": "contracts/KaretKontrak.sol",
  "abi": [
    {
      "inputs": [],
      "stateMutability": "nonpayable",
      "type": "constructor"
    },
    {
      "anonymous": false,
      "inputs": [
        {
          "indexed": false,
          "internalType": "address",
          "name": "petani",
          "type": "address"
        },
        {
          "indexed": false,
          "internalType": "uint256",
          "name": "berat",
          "type": "uint256"
        },
        {
          "indexed": false,
          "internalType": "uint256",
          "name": "harga",
          "type": "uint256"
        }
      ],
      "name": "TransaksiDibuat",
      "type": "event"
    },
    {
      "inputs": [
        {
          "internalType": "address",
          "name": "_petani",
          "type": "address"
        },
        {
          "internalType": "uint256",
          "name": "_berat",
          "type": "uint256"
        },
        {
          "internalType": "string",
          "name": "_kualitas",
          "type": "string"
        }
      ],
      "name": "buatTransaksi",
      "outputs": [],
      "stateMutability": "payable",
      "type": "function"
    },
    {
      "inputs": [
        {
          "internalType": "string",
          "name": "",
          "type": "string"
        }
      ],
      "name": "hargaPerKualitas",
      "outputs": [
        {
          "internalType": "uint256",
          "name": "",
          "type": "uint256"
        }
      ],
      "stateMutability": "view",
      "type": "function"
    },
    {
      "inputs": [],
      "name": "owner",
      "outputs": [
        {
          "internalType": "address",
          "name": "",
          "type": "address"
        }
      ],
      "stateMutability": "view",
      "type": "function"
    }
  ],
  "bytecode": "0x608060405234801561001057600080fd5b50336000806101000a81548173ffffffffffffffffffffffffffffffffffffffff021916908373ffffffffffffffffffffffffffffffffffffffff160217905550662386f26fc10000600160405161006790610125565b9081526020016040518091039020819055506618de76816d8000600160405161008f90610186565b9081526020016040518091039020819055506611c37937e0800060016040516100b7906101e7565b9081526020016040518091039020819055506101fc565b600081905092915050565b7f4100000000000000000000000000000000000000000000000000000000000000600082015250565b600061010f6001836100ce565b915061011a826100d9565b600182019050919050565b600061013082610102565b9150819050919050565b7f4200000000000000000000000000000000000000000000000000000000000000600082015250565b60006101706001836100ce565b915061017b8261013a565b600182019050919050565b600061019182610163565b9150819050919050565b7f4300000000000000000000000000000000000000000000000000000000000000600082015250565b60006101d16001836100ce565b91506101dc8261019b565b600182019050919050565b60006101f2826101c4565b9150819050919050565b6107c68061020b6000396000f3fe6080604052600436106100345760003560e01c806314ea3c7c146100395780638da5cb5b14610076578063922561c1146100a1575b600080fd5b34801561004557600080fd5b50610060600480360381019061005b91906103bd565b6100bd565b60405161006d919061041f565b60405180910390f35b34801561008257600080fd5b5061008b6100eb565b604051610098919061047b565b60405180910390f35b6100bb60048036038101906100b6919061054e565b61010f565b005b6001818051602081018201805184825260208301602085012081835280955050505050506000915090505481565b60008054906101000a900473ffffffffffffffffffffffffffffffffffffffff1681565b60008054906101000a900473ffffffffffffffffffffffffffffffffffffffff1673ffffffffffffffffffffffffffffffffffffffff163373ffffffffffffffffffffffffffffffffffffffff161461019d576040517f08c379a00000000000000000000000000000000000000000000000000000000081526004016101949061061f565b60405180910390fd5b60006103e8600184846040516101b492919061066f565b908152602001604051809103902054856101ce91906106b7565b6101d89190610728565b90508473ffffffffffffffffffffffffffffffffffffffff166108fc829081150290604051600060405180830381858888f19350505050158015610220573d6000803e3d6000fd5b507f8a28ccca7183594b505c4be33c77ad5c60a8881d13b5ec21f49cde30f681da8485858360405161025493929190610759565b60405180910390a15050505050565b6000604051905090565b600080fd5b600080fd5b600080fd5b600080fd5b6000601f19601f8301169050919050565b7f4e487b7100000000000000000000000000000000000000000000000000000000600052604160045260246000fd5b6102ca82610281565b810181811067ffffffffffffffff821117156102e9576102e8610292565b5b80604052505050565b60006102fc610263565b905061030882826102c1565b919050565b600067ffffffffffffffff82111561032857610327610292565b5b61033182610281565b9050602081019050919050565b82818337600083830152505050565b600061036061035b8461030d565b6102f2565b90508281526020810184848401111561037c5761037b61027c565b5b61038784828561033e565b509392505050565b600082601f8301126103a4576103a3610277565b5b81356103b484826020860161034d565b91505092915050565b6000602082840312156103d3576103d261026d565b5b600082013567ffffffffffffffff8111156103f1576103f0610272565b5b6103fd8482850161038f565b91505092915050565b6000819050919050565b61041981610406565b82525050565b60006020820190506104346000830184610410565b92915050565b600073ffffffffffffffffffffffffffffffffffffffff82169050919050565b60006104658261043a565b9050919050565b6104758161045a565b82525050565b6000602082019050610490600083018461046c565b92915050565b61049f8161045a565b81146104aa57600080fd5b50565b6000813590506104bc81610496565b92915050565b6104cb81610406565b81146104d657600080fd5b50565b6000813590506104e8816104c2565b92915050565b600080fd5b600080fd5b60008083601f84011261050e5761050d610277565b5b8235905067ffffffffffffffff81111561052b5761052a6104ee565b5b602083019150836001820283011115610547576105466104f3565b5b9250929050565b600080600080606085870312156105685761056761026d565b5b6000610576878288016104ad565b9450506020610587878288016104d9565b935050604085013567ffffffffffffffff8111156105a8576105a7610272565b5b6105b4878288016104f8565b925092505092959194509250565b600082825260208201905092915050565b7f48616e7961206f776e6572000000000000000000000000000000000000000000600082015250565b6000610609600b836105c2565b9150610614826105d3565b602082019050919050565b60006020820190508181036000830152610638816105fc565b9050919050565b600081905092915050565b6000610656838561063f565b935061066383858461033e565b82840190509392505050565b600061067c82848661064a565b91508190509392505050565b7f4e487b7100000000000000000000000000000000000000000000000000000000600052601160045260246000fd5b60006106c282610406565b91506106cd83610406565b92508282026106db81610406565b915082820484148315176106f2576106f1610688565b5b5092915050565b7f4e487b7100000000000000000000000000000000000000000000000000000000600052601260045260246000fd5b600061073382610406565b915061073e83610406565b92508261074e5761074d6106f9565b5b828204905092915050565b600060608201905061076e600083018661046c565b61077b6020830185610410565b6107886040830184610410565b94935050505056fea26469706673582212205b8eda0a85c8bf8cb208775f6f64b19ff5bd28883609d171808ca48f368b6edd64736f6c634300081c0033",
  "linkReferences": {},
  "deployedLinkReferences": {}
}